:100000000C945D000C9485000C9485000C94850084
:100010000C9485000C9485000C9485000C9485004C
:100020000C9485000C9485000C9485000C9485003C
:100030000C9485000C9485000C9485000C9485002C
:100040000C942B030C9485000C94F9020C94D302AD
:100050000C9485000C9485000C9485000C9485000C
:100060000C9485000C94850000000008000201003B
:100070000003040700000000000000000000000072
:10008000250028002B0000000000240027002A0083
:10009000040404040404040402020202020203032E
:1000A0000303030301020408102040800102040836
:1000B0001020010204081020900411241FBECFEF6D
:1000C000D8E0DEBFCDBF11E0A0E0B1E0E6EFF9E09F
:1000D00002C005900D92AC31B107D9F722E0ACE136
:1000E000B1E001C01D92A530B207E1F710E0CDE507
:1000F000D0E004C02197FE010E94DF04CC35D10777
:10010000C9F70E9478030C94F9040C9400000000D5
:1001100090E0FC01EC55FF4F2491FC01E057FF4FAC
:100120008491882399F090E0880F991FFC01EA5789
:10013000FF4FA591B491FC01E458FF4F8591949134
:100140008FB7F894EC91E22BEC938FBF0895CF9288
:10015000DF92EF92FF920F931F93CF93DF936C0187
:100160007A018B01C0E0D0E0CE15DF0589F0D8011F
:100170006D918D01D601ED91FC910190F081E02D02
:10018000C6010995892B11F47E0102C02196ECCF9E
:10019000C701DF91CF911F910F91FF90EF90DF90FA
:1001A000CF900895FC01918D828D981761F0828D1A
:1001B000DF01A80FB11D5D968C91928D9F5F9F739B
:1001C000928F90E008958FEF9FEF0895FC01918D3D
:1001D000828D981731F0828DE80FF11D858D90E0AA
:1001E00008958FEF9FEF0895FC01918D228D892F47
:1001F00090E0805C9F4F821B91098F73992708952F
:1002000088E691E00E94F40021E0892B09F420E0C7
:10021000822F0895FC01848DDF01A80FB11DA35A20
:10022000BF4F2C91848D90E001968F739927848F16
:10023000A689B7892C93A089B1898C9180648C930D
:10024000938D848D981306C00288F389E02D8081F8
:100250008F7D80830895EF92FF920F931F93CF932A
:10026000DF93EC0181E0888F9B8D8C8D981305C006
:10027000E889F989808185FD24C0F62E0B8D10E078
:100280000F5F1F4F0F731127E02E8C8DE8120CC0EB
:100290000FB607FCFACFE889F989808185FFF5CF91
:1002A000CE010E940A01F1CF8B8DFE01E80FF11DF6
:1002B000E35AFF4FF0820B8FEA89FB8980818062CD
:1002C00007C0EE89FF896083E889F98980818064AD
:1002D000808381E090E0DF91CF911F910F91FF909B
:1002E000EF900895CF93DF93EC01888D8823C9F0B8
:1002F000EA89FB89808185FD05C0A889B9898C912F
:1003000086FD0FC00FB607FCF5CF808185FFF2CFC9
:10031000A889B9898C9185FFEDCFCE010E940A0191
:10032000E7CFDF91CF91089580E090E0892B29F00D
:100330000E94000181110C940000089590E0FC01DE
:10034000E859FF4F3491FC01EC55FF4F2491FC011B
:10035000E057FF4FE491EE2309F43BC0332339F11A
:10036000333091F038F43130A9F0323001F584B5F2
:100370008F7D12C0373091F03830A1F03430B9F4AD
:10038000809180008F7D03C0809180008F77809363
:1003900080000DC084B58F7784BD09C08091B00006
:1003A0008F7703C08091B0008F7D8093B000F0E024
:1003B000EE0FFF1FE458FF4FA591B4918FB7F8944B
:1003C000EC91611103C020952E2301C02E2B2C939C
:1003D0008FBF08953FB7F894809121019091220139
:1003E000A0912301B091240126B5A89B05C02F3F01
:1003F00019F00196A11DB11D3FBFBA2FA92F982F4B
:100400008827820F911DA11DB11DBC01CD0142E0C5
:10041000660F771F881F991F4A95D1F7089500002E
:100420000F931F93CF93DF938B01EA0160E086E087
:100430000E949E0186E00E948800F894219708F4AB
:1004400024C0F8010190008007D0029005D00190EF
:100450000190019001D017C008D007D006D005D078
:1004600004D003D002D001D008955E9A001C000091
:10047000000008F05E98000000000000000000008E
:1004800008F45E9808958F01D9CF789483EC90E0BA
:100490000197F1F7DF91CF911F910F91089520E01F
:1004A00030E0FC014191CF0150ED540F5A3068F417
:1004B00054E0220F331F5A95E1F7042E000C550B20
:1004C00040535109240F351FECCF5FE9540F5630CC
:1004D00078F4B90124E0660F771F2A95E1F7042E1E
:1004E000000C550B9A0127553109260F371FD9CF1C
:1004F000822F0895009769F0FC0101900020E9F730
:100500003197AF01481B590BBC0188E691E00C9470
:10051000A70080E090E00895CF92DF92EF92FF92E3
:100520000F931F93CF93DF93CDB7DEB7A1970FB68D
:10053000F894DEBF0FBECDBF282F30E040E050E082
:1005400019A28E010F5D1F4F8AE0C82ED12CE12C1D
:10055000F12CCA01B901A70196010E94BD04605D9A
:10056000F80162938F01211531054105510589F785
:10057000CF010E947A028C0188E191E00E947A0208
:10058000800F911FA1960FB6F894DEBF0FBECDBFAE
:10059000DF91CF911F910F91FF90EF90DF90CF905F
:1005A00008950E94E5041F920F920FB60F92112436
:1005B0002F933F934F935F936F937F938F939F936B
:1005C000AF93BF93EF93FF9388E691E00E940A01F7
:1005D000FF91EF91BF91AF919F918F917F916F911B
:1005E0005F914F913F912F910F900FBE0F901F90F1
:1005F00018951F920F920FB60F9211242F938F937D
:100600009F93EF93FF93E0917801F09179018081BE
:10061000E0917E01F0917F0182FD12C09081809176
:1006200081018F5F8F7320918201821751F0E091D9
:100630008101F0E0E859FE4F958F8093810101C060
:100640008081FF91EF919F918F912F910F900FBE1D
:100650000F901F9018951F920F920FB60F921124B2
:100660002F933F938F939F93AF93BF9380911D01DF
:1006700090911E01A0911F01B091200130911C01A9
:1006800023E0230F2D3720F40196A11DB11D05C0D5
:1006900026E8230F0296A11DB11D20931C01809313
:1006A0001D0190931E01A0931F01B0932001809122
:1006B000210190912201A0912301B0912401019682
:1006C000A11DB11D8093210190932201A0932301CC
:1006D000B0932401BF91AF919F918F913F912F9142
:1006E0000F900FBE0F901F901895000000000000A3
:1006F000CF93DF9300D0CDB7DEB7789484B5826016
:1007000084BD84B5816084BD85B5826085BD85B5B5
:10071000816085BD80916E00816080936E00109233
:1007200081008091810082608093810080918100AE
:10073000816080938100809180008160809380003F
:100740008091B10084608093B1008091B00081609D
:100750008093B00080917A00846080937A008091C9
:100760007A00826080937A0080917A008160809321
:100770007A0080917A00806880937A001092C1009C
:10078000E0917801F091790182E08083E091740139
:10079000F09175011082E0917601F09177018FEC74
:1007A000808310928001E0917C01F0917D0186E0D0
:1007B0008083E0917A01F0917B0180818061808368
:1007C000E0917A01F0917B01808188608083E091E3
:1007D0007A01F0917B01808180688083E0917A01C9
:1007E000F0917B0180818F7D80838DE00E94880065
:1007F00061E08AE00E949E0188E691E00E94F40098
:10080000181619060CF089C088E691E00E94D20003
:1008100090916701953009F078C08093660181E678
:1008200091E00E947A0288E191E00E947A0210929F
:10083000670142E050E061E671E0CE0101960E945E
:10084000EA04CE0101960E944F02D82E42E050E009
:1008500063E671E0CE0101960E94EA04CE010196A2
:100860000E944F02E82E42E050E065E671E0CE01C2
:1008700001960E94EA04CE0101960E944F02F82ED2
:100880008D2D0E948C028E2D0E948C028F2D0E9435
:100890008C0220E030E0F901EB5DFE4FD082E18276
:1008A000F2822D5F3F4F2C333105A9F744E150E030
:1008B00065E271E080E091E00E9410020E94EA018E
:1008C0004B015C018AE0C82ED12CE12CF12C0E9456
:1008D000EA01DC01CB0188199909AA09BB09883E04
:1008E0009340A105B10558F021E0C21AD108E108F2
:1008F000F10888EE880E83E0981EA11CB11CC1147B
:10090000D104E104F10419F708C0E92FF0E0EF5930
:10091000FE4F80839F5F909367010E9494016CCF8C
:10092000E8E6F1E01382128288EE93E0A0E0B0E006
:1009300084839583A683B7838CE091E09183808341
:1009400085EC90E09587848784EC90E09787868794
:1009500080EC90E0918B808B81EC90E0938B828B8C
:1009600082EC90E0958B848B86EC90E0978B868B65
:10097000118E128E138E148E0895A1E21A2EAA1BC8
:10098000BB1BFD010DC0AA1FBB1FEE1FFF1FA2173F
:10099000B307E407F50720F0A21BB30BE40BF50B3C
:1009A000661F771F881F991F1A9469F760957095C5
:1009B000809590959B01AC01BD01CF010895EE0F8C
:1009C000FF1F0590F491E02D099481E090E0F894E8
:1009D0000C94F904FB01DC014150504048F00190B7
:1009E0000D920020C9F701C01D9241505040E0F720
:0609F0000895F894FFCF0A
:1009F6000601000000001002000000002B01A70005
:0C0A0600F400D200E60072010D0A0000AE
:107E0000112484B714BE81FFF0D085E080938100F7
:107E100082E08093C00088E18093C10086E0809377
:107E2000C20080E18093C4008EE0C9D0259A86E02C
:107E300020E33CEF91E0309385002093840096BBD3
:107E4000B09BFECF1D9AA8958150A9F7CC24DD24C4
:107E500088248394B5E0AB2EA1E19A2EF3E0BF2EE7
:107E6000A2D0813461F49FD0082FAFD0023811F036
:107E7000013811F484E001C083E08DD089C08234E0
:107E800011F484E103C0853419F485E0A6D080C0E4
:107E9000853579F488D0E82EFF2485D0082F10E0AE
:107EA000102F00270E291F29000F111F8ED06801E7
:107EB0006FC0863521F484E090D080E0DECF843638
:107EC00009F040C070D06FD0082F6DD080E0C81688
:107ED00080E7D80618F4F601B7BEE895C0E0D1E017
:107EE00062D089930C17E1F7F0E0CF16F0E7DF06D8
:107EF00018F0F601B7BEE89568D007B600FCFDCFD4
:107F0000A601A0E0B1E02C9130E011968C91119780
:107F100090E0982F8827822B932B1296FA010C0160
:107F200087BEE89511244E5F5F4FF1E0A038BF0790
:107F300051F7F601A7BEE89507B600FCFDCF97BE46
:107F4000E89526C08437B1F42ED02DD0F82E2BD052
:107F50003CD0F601EF2C8F010F5F1F4F84911BD097
:107F6000EA94F801C1F70894C11CD11CFA94CF0C13
:107F7000D11C0EC0853739F428D08EE10CD085E9AC
:107F80000AD08FE07ACF813511F488E018D01DD067
:107F900080E101D065CF982F8091C00085FFFCCF94
:107FA0009093C60008958091C00087FFFCCF809118
:107FB000C00084FD01C0A8958091C6000895E0E648
:107FC000F0E098E1908380830895EDDF803219F02E
:107FD00088E0F5DFFFCF84E1DECF1F93182FE3DFCA
:107FE0001150E9F7F2DF1F91089580E0E8DFEE27F6
:047FF000FF270994CA
:027FFE00040479
:0400000300007E007B
:00000001FF
