:100000000C945D000C9485000C9485000C94850084
:100010000C9485000C9485000C9485000C9485004C
:100020000C9485000C9485000C9485000C9485003C
:100030000C9485000C9485000C9485000C9485002C
:100040000C940C030C9485000C94DA020C94B4020A
:100050000C9485000C9485000C9485000C9485000C
:100060000C9485000C94850000000008000201003B
:100070000003040700000000000000000000000072
:10008000250028002B0000000000240027002A0083
:10009000040404040404040402020202020203032E
:1000A0000303030301020408102040800102040836
:1000B0001020010204081020930511241FBECFEF69
:1000C000D8E0DEBFCDBF11E0A0E0B1E0ECE5FCE0A0
:1000D00002C005900D92A832B107D9F722E0A8E23C
:1000E000B1E001C01D92A432B207E1F710E0CDE506
:1000F000D0E004C02197FE010E94E305CC35D10772
:10010000C9F70E9458030C942C060C9400000000C0
:1001100090E0FC01EC55FF4F2491FC01E057FF4FAC
:100120008491882399F090E0880F991FFC01EA5789
:10013000FF4FA591B491FC01E458FF4F8591949134
:100140008FB7F894EC91E22BEC938FBF0895CF9288
:10015000DF92EF92FF920F931F93CF93DF936C0187
:100160007A018B01C0E0D0E0CE15DF0589F0D8011F
:100170006D918D01D601ED91FC910190F081E02D02
:10018000C6010995892B11F47E0102C02196ECCF9E
:10019000C701DF91CF911F910F91FF90EF90DF90FA
:1001A000CF900895FC01918D828D981761F0828D1A
:1001B000DF01A80FB11D5D968C91928D9F5F9F739B
:1001C000928F90E008958FEF9FEF0895FC01918D3D
:1001D000828D981731F0828DE80FF11D858D90E0AA
:1001E00008958FEF9FEF0895FC01918D228D892F47
:1001F00090E0805C9F4F821B91098F73992708952F
:1002000087E891E00E94F40021E0892B09F420E0C6
:10021000822F0895FC01848DDF01A80FB11DA35A20
:10022000BF4F2C91848D90E001968F739927848F16
:10023000A689B7892C93A089B1898C9180648C930D
:10024000938D848D981306C00288F389E02D8081F8
:100250008F7D80830895EF92FF920F931F93CF932A
:10026000DF93EC0181E0888F9B8D8C8D981305C006
:10027000E889F989808185FD24C0F62E0B8D10E078
:100280000F5F1F4F0F731127E02E8C8DE8120CC0EB
:100290000FB607FCFACFE889F989808185FFF5CF91
:1002A000CE010E940A01F1CF8B8DFE01E80FF11DF6
:1002B000E35AFF4FF0820B8FEA89FB8980818062CD
:1002C00007C0EE89FF896083E889F98980818064AD
:1002D000808381E090E0DF91CF911F910F91FF909B
:1002E000EF900895CF93DF93EC01888D8823C9F0B8
:1002F000EA89FB89808185FD05C0A889B9898C912F
:1003000086FD0FC00FB607FCF5CF808185FFF2CFC9
:10031000A889B9898C9185FFEDCFCE010E940A0191
:10032000E7CFDF91CF91089580E090E0892B29F00D
:100330000E94000181110C940000089590E0FC01DE
:10034000E859FF4F3491FC01EC55FF4F2491FC011B
:10035000E057FF4FE491EE2309F43BC0332339F11A
:10036000333091F038F43130A9F0323001F584B5F2
:100370008F7D12C0373091F03830A1F03430B9F4AD
:10038000809180008F7D03C0809180008F77809363
:1003900080000DC084B58F7784BD09C08091B00006
:1003A0008F7703C08091B0008F7D8093B000F0E024
:1003B000EE0FFF1FE458FF4FA591B4918FB7F8944B
:1003C000EC91611103C020952E2301C02E2B2C939C
:1003D0008FBF08953FB7F8948091290190912A0129
:1003E000A0912B01B0912C0126B5A89B05C02F3FF1
:1003F00019F00196A11DB11D3FBFBA2FA92F982F4B
:100400008827820F911DA11DB11DBC01CD0142E0C5
:10041000660F771F881F991F4A95D1F708958F920D
:100420009F92AF92BF92CF92DF92EF92FF920E9483
:10043000EA014B015C018AE0C82ED12CE12CF12CA1
:100440000E94EA01DC01CB0188199909AA09BB09BC
:10045000883E9340A105B10558F021E0C21AD108A9
:10046000E108F10888EE880E83E0981EA11CB11CFB
:10047000C114D104E104F10419F7FF90EF90DF906B
:10048000CF90BF90AF909F908F9008950000000094
:100490000F931F93CF93DF938B01EA0160E086E017
:1004A0000E949E0186E00E948800F894219708F43B
:1004B00024C0F8010190008007D0029005D001907F
:1004C0000190019001D017C008D007D006D005D008
:1004D00004D003D002D001D008955E9A001C000021
:1004E000000008F05E98000000000000000000001E
:1004F00008F45E9808958F01D9CF78948BE391E04A
:100500000197F1F7DF91CF911F910F91089520E0AE
:1005100030E0FC014191CF0150ED540F5A3068F4A6
:1005200054E0220F331F5A95E1F7042E000C550BAF
:1005300040535109240F351FECCF5FE9540F56305B
:1005400078F4B90124E0660F771F2A95E1F7042EAD
:10055000000C550B9A0127553109260F371FD9CFAB
:10056000822F08950E94E9051F920F920FB60F92F5
:1005700011242F933F934F935F936F937F938F93A8
:100580009F93AF93BF93EF93FF9387E891E00E940F
:100590000A01FF91EF91BF91AF919F918F917F9150
:1005A0006F915F914F913F912F910F900FBE0F90E0
:1005B0001F9018951F920F920FB60F9211242F9330
:1005C0008F939F93EF93FF93E0919701F0919801A0
:1005D0008081E0919D01F0919E0182FD12C0908189
:1005E0008091A0018F5F8F732091A101821751F03C
:1005F000E091A001F0E0E957FE4F958F8093A001B4
:1006000001C08081FF91EF919F918F912F910F9069
:100610000FBE0F901F9018951F920F920FB60F925A
:1006200011242F933F938F939F93AF93BF93809108
:100630002D0190912E01A0912F01B09130013091A8
:10064000280123E0230F2D3720F40196A11DB11DB1
:1006500005C026E8230F0296A11DB11D2093280195
:1006600080932D0190932E01A0932F01B093300120
:100670008091290190912A01A0912B01B0912C0128
:100680000196A11DB11D8093290190932A01A09389
:100690002B01B0932C01BF91AF919F918F913F910E
:1006A0002F910F900FBE0F901F9018950000000023
:1006B000CF93DF9300D0CDB7DEB7789484B5826056
:1006C00084BD84B5816084BD85B5826085BD85B5F6
:1006D000816085BD80916E00816080936E00109274
:1006E00081008091810082608093810080918100EF
:1006F0008160809381008091800081608093800080
:100700008091B10084608093B1008091B0008160DD
:100710008093B00080917A00846080937A00809109
:100720007A00826080937A0080917A008160809361
:100730007A0080917A00806880937A001092C100DC
:10074000E0919701F091980182E08083E09193011C
:10075000F09194011082E0919501F09196018FEC57
:10076000808310929F01E0919B01F0919C0186E0B3
:100770008083E0919901F0919A018081806180836A
:10078000E0919901F0919A01808188608083E091E5
:100790009901F0919A01808180688083E0919901AC
:1007A000F0919A0180818F7D80838DE00E94880086
:1007B00061E08AE00E949E015CE3452E512C0FEF20
:1007C00010E087E891E00E94F400181619060CF07A
:1007D000A7C187E891E00E94D200F82E809186019F
:1007E000882309F497C180918501882309F480C189
:1007F0006EE071E081E891E00E94EE05892B09F03E
:1008000052C08EE3F81244C010928601109280010B
:100810001092850142E050E069E771E0CE01019657
:100820000E94F705CE0101960E948702E82E42E061
:1008300050E06BE771E0CE0101960E94F705CE0112
:1008400001960E948702F82E42E050E06DE771E0C9
:10085000CE0101960E94F705CE0101960E94870203
:1008600020E030E0F901EF5CFE4FE082F18282830C
:100870002D5F3F4F2C333105A9F744E150E061E390
:1008800071E080E091E00E9448020E940F0248C19E
:1008900080918001E82FF0E0E758FE4FF0828F5FF3
:1008A000809380013DC16AE071E081E891E00E949F
:1008B000EE05892B09F013C18EE3F812CEC0109219
:1008C0008601109280011092850110927801109299
:1008D000770110927601E09075010E2C000CFF0854
:1008E00080E3E81AF10882E0E816F10408F018C184
:1008F00081E791E00E940606D82E5C01BB2487E8C0
:1009000091E00E94F400892B09F00AC12FB7F894F6
:1009100080912D0190912E01A0912F01B091300175
:100920002FBF35E0B695A795979587953A95D1F75E
:100930009695879596958795282EE3E3F1E0C12C4F
:1009400033243A94222DE114F10421F480E1C89E6D
:100950002019112430E0A7E6B1E00E94D405BB279E
:10096000A92F982F872FB2010E94C0053B019C013F
:10097000329EC001339E900D1124B2010E94C00529
:100980004B01369EC001379E900D1124B8010E9484
:10099000C0059801261B370B2A9DC0012B9D900D89
:1009A0003A9D900D1124B8010E94C005362F262FC4
:1009B000A80148195909349EC001359E900D112493
:1009C000B8010E94C005A801461B570B4A9DC001F3
:1009D0004B9D900D5A9D900D1124B8010E94C005A9
:1009E000962E462FC30166E070E00E94C00583305A
:1009F000910599F040F48130910569F00297A9F4CE
:100A0000892D4D2D0CC08430910559F0059769F45E
:100A1000832F2D2D08C04D2D09C08D2D432F20E093
:100A200006C08D2D292D40E002C02D2D80E0DF0174
:100A300012972C9311964C9380833396C39484E140
:100A4000C81280CF44E150E061E371E080E091E0C2
:100A50000E9448020E940F0252CF8091770183309A
:100A600048F4E82FF0E0E359FE4FF0828F5F809367
:100A7000770156C066E071E08DE691E00E94EE05D8
:100A8000892B49F483E2F81619F0F092750148C0F9
:100A90001092770145C062E071E08DE691E00E941E
:100AA000EE05892B89F483E2F81659F080917801DC
:100AB000E82FF0E0EF58FE4FF0828F5F80937801CF
:100AC0002FC0109278012CC01092860110928001E4
:100AD00010928501109278011092770106C0109251
:100AE000860110928001109285011092760118C043
:100AF00083E2F81659F080917601E82FF0E0EF5785
:100B0000FE4FF0828F5F809376010AC081E0809370
:100B10008501EBCF8CE3F81203C081E0809386015E
:100B20000E9494014ECEE7E8F1E01382128288EE33
:100B300093E0A0E0B0E084839583A683B7838CE143
:100B400091E09183808385EC90E09587848784ECA5
:100B500090E09787868780EC90E0918B808B81EC8A
:100B600090E0938B828B82EC90E0958B848B86EC6B
:100B700090E0978B868B118E128E138E148E0895B3
:100B8000AA1BBB1B51E107C0AA1FBB1FA617B707B3
:100B900010F0A61BB70B881F991F5A95A9F78095CF
:100BA0009095BC01CD010895A29FB001B39FC001F3
:100BB000A39F700D811D1124911DB29F700D811D89
:100BC0001124911D0895EE0FFF1F0590F491E02D63
:100BD000099481E090E0F8940C942C06FB01DC0170
:100BE0008D91019080190110D9F3990B0895FB01A3
:100BF000DC014150504048F001900D920020C9F7AF
:100C000001C01D9241505040E0F70895FC01882733
:100C10009927E89421912032E9F3293010F02E3001
:100C2000C8F32B3241F02D3239F4689404C00E948D
:100C30002406820F911D219120532A30C0F31EF407
:100C4000909581959F4F08957AE0979F902D879F6B
:0C0C5000802D910D11240895F894FFCF21
:100C5C001601626768006D6F640072627700636FE3
:100C6C006C00000000004802000000002B01A700EF
:080C7C00F400D200E600720151
:107E0000112484B714BE81FFF0D085E080938100F7
:107E100082E08093C00088E18093C10086E0809377
:107E2000C20080E18093C4008EE0C9D0259A86E02C
:107E300020E33CEF91E0309385002093840096BBD3
:107E4000B09BFECF1D9AA8958150A9F7CC24DD24C4
:107E500088248394B5E0AB2EA1E19A2EF3E0BF2EE7
:107E6000A2D0813461F49FD0082FAFD0023811F036
:107E7000013811F484E001C083E08DD089C08234E0
:107E800011F484E103C0853419F485E0A6D080C0E4
:107E9000853579F488D0E82EFF2485D0082F10E0AE
:107EA000102F00270E291F29000F111F8ED06801E7
:107EB0006FC0863521F484E090D080E0DECF843638
:107EC00009F040C070D06FD0082F6DD080E0C81688
:107ED00080E7D80618F4F601B7BEE895C0E0D1E017
:107EE00062D089930C17E1F7F0E0CF16F0E7DF06D8
:107EF00018F0F601B7BEE89568D007B600FCFDCFD4
:107F0000A601A0E0B1E02C9130E011968C91119780
:107F100090E0982F8827822B932B1296FA010C0160
:107F200087BEE89511244E5F5F4FF1E0A038BF0790
:107F300051F7F601A7BEE89507B600FCFDCF97BE46
:107F4000E89526C08437B1F42ED02DD0F82E2BD052
:107F50003CD0F601EF2C8F010F5F1F4F84911BD097
:107F6000EA94F801C1F70894C11CD11CFA94CF0C13
:107F7000D11C0EC0853739F428D08EE10CD085E9AC
:107F80000AD08FE07ACF813511F488E018D01DD067
:107F900080E101D065CF982F8091C00085FFFCCF94
:107FA0009093C60008958091C00087FFFCCF809118
:107FB000C00084FD01C0A8958091C6000895E0E648
:107FC000F0E098E1908380830895EDDF803219F02E
:107FD00088E0F5DFFFCF84E1DECF1F93182FE3DFCA
:107FE0001150E9F7F2DF1F91089580E0E8DFEE27F6
:047FF000FF270994CA
:027FFE00040479
:0400000300007E007B
:00000001FF
